S01300005552535F70726F6A656B742E73726563B9
S11300000C942A000C943F000C943F000C943F0085
S11300100C943F000C943F000C943F000C943F0060
S11300200C943F000C943F000C943F000C943F0050
S11300300C943F000C943F000C943F000C943F0040
S11300400C943F000C943F000C943F000C943F0030
S11300500C943F0011241FBECFE5D4E0DEBFCDBF1A
S113006010E0A0E6B0E0ECE7F1E002C005900D92EC
S1130070A436B107D9F70E9486000C94BC000C94F6
S113008000002AB128612AB920B5266820BDDC0108
S1130090CB01880F991FAA1FBB1F880F991FAA1F86
S11300A0BB1F9C01AD01220F331F441F551F220F9C
S11300B0331F441F551F60E070E880E790E00E9402
S11300C09A008FEF820F89B9DA01C9010197A1095A
S11300D0B109892F9A2FAB2FBB2780BD08955D9B53
S11300E0FECF8CB908950F931F93CF938C01C0E07A
S11300F003C00E946F00CF5FF801EC0FF11D8081F7
S11301008111F7CFCF911F910F91089560EC72E1A7
S113011080E090E00E94410080E690E00E9473003D
S11301202FEF8FE796E1215080409040E1F700C027
S11301300000F2CFA1E21A2EAA1BBB1BFD010DC0C9
S1130140AA1FBB1FEE1FFF1FA217B307E407F50783
S113015020F0A21BB30BE40BF50B661F771F881F5F
S1130160991F1A9469F760957095809590959B01F5
S10F0170AC01BD01CF010895F894FFCF4D
S107017C48690000CA
S9030000FC
