:100000000C942A000C943F000C943F000C943F0089
:100010000C943F000C943F000C943F000C943F0064
:100020000C943F000C943F000C943F000C943F0054
:100030000C943F000C943F000C943F000C943F0044
:100040000C943F000C943F000C943F000C943F0034
:100050000C943F0011241FBECFE5D4E0DEBFCDBF1E
:1000600010E0A0E6B0E0ECEFF0E002C005900D92E9
:10007000A636B107D9F70E9441000C947C000C947D
:100080000000CF93DF9300D000D01F92CDB7DEB732
:1000900085E0E0E6F0E0DE01119601900D928A9590
:1000A000E1F710BC87E189B980B5866880BD8AB167
:1000B00088608AB980E090E004C05D9BFECF2CB9D7
:1000C0000196E1E0F0E0EC0FFD1FE80FF91F208141
:1000D0002111F3CF5D9BFECF8AE08CB95D9BFECFF3
:1000E0008DE08CB92FEF8FE796E121508040904052
:0C00F000E1F700C00000DECFF894FFCF65
:0600FC004D4D4D4D0000CA
:00000001FF
