S01300005552535F70726F6A656B742E73726563B9
S11300000C942A000C9434000C9434000C943400A6
S11300100C9434000C9434000C9434000C9434008C
S11300200C9434000C9434000C9434000C9434007C
S11300300C9434000C9434000C9434000C9434006C
S11300400C9434000C9434000C9434000C9434005C
S11300500C94340011241FBECFE5D4E0DEBFCDBF25
S11300600E9436000C9464000C940000CF93DF933C
S113007000D0CDB7DEB78FEF8ABB83E690E09A83DA
S1130080898310BC8FE589B980B58C6B80BD8AB13A
S113009088608AB980E090E004C05D9BFECF2CB9F3
S11300A00196E1E0F0E0EC0FFD1FE80FF91F20815D
S11300B02111F3CF2FEF8FE796E12150804090403C
S10F00C0E1F700C00000E6CFF894FFCF89
S9030000FC
