S01300005552535F70726F6A656B742E73726563B9
S11300000C942A000C943F000C943F000C943F0085
S11300100C943F000C943F000C943F000C943F0060
S11300200C943F000C943F000C943F000C943F0050
S11300300C943F000C943F000C943F000C943F0040
S11300400C943F000C943F000C943F000C943F0030
S11300500C943F0011241FBECFE5D4E0DEBFCDBF1A
S113006010E0A0E6B0E0ECEEF0E002C005900D92E6
S1130070AE36B107D9F70E9441000C9474000C9479
S11300800000CF93DF93CDB7DEB72E970FB6F89469
S1130090DEBF0FBECDBF8FEF8ABB8EE0E0E6F0E09F
S11300A0DE01119601900D928A95E1F710BC8FE55F
S11300B089B980B58C6B80BD8AB188608AB980E0CB
S11300C090E004C05D9BFECF2CB90196E1E0F0E026
S11300D0EC0FFD1FE80FF91F20812111F3CF83E3FB
S10F00E097E00197F1F7EBCFF894FFCF05
S11100EC494445204741532121212121200070
S9030000FC
