S01300005552535F70726F6A656B742E73726563B9
S11300000C942A000C943F000C943F000C943F0085
S11300100C943F000C943F000C943F000C943F0060
S11300200C943F000C943F000C943F000C943F0050
S11300300C943F000C943F000C943F000C943F0040
S11300400C943F000C943F000C943F000C943F0030
S11300500C943F0011241FBECFE5D4E0DEBFCDBF1A
S113006010E0A0E6B0E0E8EDFAE002C005900D92E1
S1130070AA37B107D9F70E945F000C946A050C9463
S11300800000AC0120E030E005C05D9BFECF9CB9D0
S11300902F5F3F4FFA01E20FF31F90819111F5CFCB
S11300A08FEF97E40197F1F700C00000089510BCAA
S11300B08FE589B98CEB80BD88E18AB90895CF9327
S11300C0DF93CDB7DEB768970FB6F894DEBF0FBEE7
S11300D0CDBF2FEF8FE191E0215080409040E1F7B8
S11300E000C000008FEF8ABB0E9457000E94740278
S11300F02FEF8FE392E0215080409040E1F700C061
S113010000000E941A0187E30E940401182F8BBB90
S1130110823929F480E690E00E9441000DC080E716
S1130120810F823028F486E690E00E94410004C0EA
S11301308CE690E00E9441001F921F9382E790E0BA
S11301409F938F938E010F5F1F4F1F930F930E94F6
S11301508002C8010E94410082E00E940401682FCD
S1130160606282E00E94F10083E00E940401682F33
S1130170606883E00E94F1002FEF8FEB91E2215041
S113018080409040E1F700C000000F900F900F9066
S11301900F900F900F90BE01675F7F4F82E50E9422
S11301A03F021F928F9385E790E09F938F938E0178
S11301B00F5F1F4F1F930F930E948002C8010E947C
S11301C041002FEF8FE796E1215080409040E1F706
S11301D000C000000F900F900F900F900F900F90A1
S11301E0DACFCF93C62F98B39B7F98BB90E0880F4C
S11301F0991F8E770E947B028C2F0E947B0288B30A
S1130200846088BBCF91089598B39B7F98BB90E09E
S1130210880F991F8E7780680E947B0280E00E947D
S11302207B0298B3946098BB08956FE081E00E94CC
S1130230F10008950E9415016DE88AE20E94F10020
S11302406EE38BE20E94F1006EE18CE20E94F10009
S113025060E08DE20E94F10060E485E10E94F1001B
S11302606DE381E10E94F10084E10E940401982F72
S1130270937029F4682F636084E10E94F10008956B
S11302804F925F926F927F928F929F92AF92BF92A2
S1130290CF92DF92EF92FF920F931F93CF93DF934E
S11302A0D82F7B01C42F59018C3029F08E3061F096
S11302B0912C812C10C00F2EF0E39F2EF02D0F2EC9
S11302C0F7E78F2EF02D07C06894992494F80F2E29
S11302D0F2E18F2EF02D84E00E940401682F6F77E5
S11302E084E00E94F1008AE00E940401682F6068A3
S11302F08AE00E94F10060E081E00E94F100412C5C
S1130300512C32010CC0F701E40DF51D608189E028
S11303100E94F1008FEF481A580A680A780A8C2F55
S113032090E0A0E0B0E0481659066A067B0658F350
S11303306D2F81E00E94F100DC3041F48DE00E94D9
S11303400401682F60688DE00E94F1000F2EF0ED2B
S1130350CF2EF7E0DF2EE12CF12CF02D84E00E946B
S11303600401C82FE1E0CE1AD108E108F10829F010
S113037080FD03C0892D8C2389F38DE00E94040144
S1130380682F6F778DE00E94F100CD28CE28CF280A
S113039009F460C086E00E9404018B7109F05CC01E
S11303A0C821C0FD02C0C1E001C0C2E0DC3009F0D8
S11303B054C08AE00E940401D82F8CE00E940401FA
S11303C0282F2770A9F08D2F90E00197880F991F8F
S11303D0880F991F880F991F820F911D092E000CF9
S11303E0AA0BBB0BF80180839183A283B38311C052
S11303F08D2F90E0880F991F880F991F880F991FE0
S1130400092E000CAA0BBB0BF80180839183A283F5
S1130410B383D11101C0D1E0D13108F0D0E1C12CB6
S1130420D12C76010DC085010C0D1D1D89E00E94A3
S11304300401F8018083FFEFCF1ADF0AEF0AFF0AF5
S11304408D2F90E0A0E0B0E0C816D906EA06FB06BE
S113045050F303C0C3E001C0C3E08C2FDF91CF9100
S11304601F910F91FF90EF90DF90CF90BF90AF90CE
S11304709F908F907F906F905F904F900895EF9230
S1130480FF920F931F93CF93DF9300D000D0CDB78B
S1130490DEB7182F7B0167E08DE00E94F100F701C1
S11304A010838E010F5F1F4F970141E0B7018CE06D
S11304B00E944001813051F449815A816B817C81D1
S11304C0403151056105710519F403C083E001C091
S11304D083E00F900F900F900F90DF91CF911F91B9
S11304E00F91FF90EF90089587B3806B87BB8DB118
S11304F081658DB908958FB9779BFECF8FB108952B
S1130500AEE0B0E0E6E8F2E00C9441050D891E8906
S113051086E08C831A8309838FEF9FE79E838D8304
S1130520AE01475E5F4F6F89788DCE0101960E94C0
S1130530A202EF81F885E00FF11F10822E96E4E00D
S11305400C945D05ABE0B0E0E8EAF2E00C9433050E
S11305506C017B018A01FC0117821682838181FF71
S1130560CCC1CE0101963C01F6019381F70193FDC4
S1130570859193FF81917F01882309F4BAC1853263
S113058039F493FD859193FF81917F01853229F49C
S1130590B60190E00E949904E7CF912C212C312CD4
S11305A0FFE1F315D8F08B3279F038F4803279F02A
S11305B08332A1F4232D20611DC08D3261F080337C
S11305C069F4232D216016C0832D8260382EE32D1B
S11305D0E4603E2E2AC0F32DF8601DC037FC2DC008
S11305E020ED280F2A3040F08E32B9F436FC81C158
S11305F0232D2064322E19C036FE06C08AE0989E50
S1130600200D1124922E11C0EAE02E9E200D1124FB
S1130610222EF32DF0623F2E08C08C3621F4832D58
S11306208068382E02C0883641F4F70193FD859125
S113063093FF81917F018111B3CF982F9F7D9554B2
S1130640933028F40C5F1F4F9FE399830DC08336CA
S113065031F0833771F0833509F059C021C0F801B6
S1130660808189830E5F1F4F88248394912C5301CA
S113067013C02801F2E04F0E511CF801A080B18094
S113068036FE03C0692D70E002C06FEF7FEFC50135
S11306900E948E044C018201F32DFF773F2E16C079
S11306A0280122E0420E511CF801A080B18036FEE0
S11306B003C0692D70E002C06FEF7FEFC5010E9497
S11306C083044C01F32DF0683F2E820133FC1BC0E0
S11306D0822D90E088169906B0F4B60180E290E08D
S11306E00E9499042A94F4CFF50137FC859137FED2
S11306F081915F01B60190E00E94990421102A942F
S113070021E0821A91088114910471F7E8C08436BB
S113071011F0893641F5F80137FE07C06081718117
S1130720828193810C5F1F4F08C060817181072E05
S1130730000C880B990B0E5F1F4FF32DFF763F2E95
S113074097FF09C090958095709561957F4F8F4F65
S11307509F4FF0683F2E2AE030E0A3010E94D504A9
S1130760882E861845C0853731F4232D2F7EB22E6E
S11307702AE030E025C0932D997FB92E8F36C1F041
S113078018F4883579F0B5C0803719F0883721F02E
S1130790B0C0E92FE061BE2EB4FE0DC0FB2DF460A5
S11307A0BF2E09C034FE0AC0292F2660B22E06C00F
S11307B028E030E005C020E130E002C020E132E072
S11307C0F801B7FE07C060817181828193810C5F5B
S11307D01F4F06C06081718180E090E00E5F1F4F63
S11307E0A3010E94D504882E8618FB2DFF773F2E87
S11307F036FE0DC0232D2E7FA22E891458F434FE0C
S11308000BC032FC09C0832D8E7EA82E05C0B82CE7
S1130810A32C03C0B82C01C0B92CA4FE0FC0FE0148
S1130820E80DF11D8081803321F49A2D997EA92E43
S113083009C0A2FE06C0B394B39404C08A2D86787E
S113084009F0B394A3FC11C0A0FE06C0B21488F44E
S1130850280C922C9B180EC0B21460F4B60180E2EE
S113086090E00E949904B394F7CFB21418F42B18B3
S113087002C0982C212CA4FE10C0B60180E390E0A5
S11308800E949904A2FE17C0A1FC03C088E790E06F
S113089002C088E590E0B6010CC08A2D867859F034
S11308A0A1FE02C08BE201C080E2A7FC8DE2B6018A
S11308B090E00E949904891438F4B60180E390E032
S11308C00E9499049A94F7CF8A94F301E80DF11DDC
S11308D08081B60190E00E9499048110F5CF222016
S11308E009F442CEB60180E290E00E9499042A9471
S11308F0F6CFF6018681978102C08FEF9FEF2B968A
S1130900E2E10C944F05FC01059061507040011028
S1130910D8F7809590958E0F9F1F0895FC01615024
S1130920704001900110D8F7809590958E0F9F1F0D
S113093008950F931F93CF93DF93FB01238121FD30
S113094003C08FEF9FEF2CC022FF16C04681578152
S1130950248135814217530744F4A081B1819D015C
S11309602F5F3F4F318320838C93268137812F5F04
S11309703F4F3783268314C08B01EC01FB010084B5
S1130980F185E02D0995892BE1F6D80116968D9114
S11309909C911797019617969C938E931697CE0168
S11309A0DF91CF911F910F910895FA01AA27283062
S11309B051F1203181F1E8946F936E7F6E5F7F4F28
S11309C08F4F9F4FAF4FB1E03ED0B4E03CD0670FA4
S11309D0781F891F9A1FA11D680F791F8A1F911DF7
S11309E0A11D6A0F711D811D911DA11D20D009F447
S11309F068943F912AE0269F11243019305D319389
S1130A00DEF6CF010895462F4770405D4193B3E071
S1130A100FD0C9F7F6CF462F4F70405D4A3318F018
S1130A20495D31FD4052419302D0A9F7EACFB4E0C9
S1130A30A6959795879577956795BA95C9F7009781
S1130A406105710508959B01AC010A2E0694579522
S1130A50479537952795BA95C9F7620F731F841F79
S1130A60951FA01D08952F923F924F925F926F920F
S1130A707F928F929F92AF92BF92CF92DF92EF922A
S1130A80FF920F931F93CF93DF93CDB7DEB7CA1BAB
S1130A90DB0B0FB6F894DEBF0FBECDBF09942A88D6
S1130AA0398848885F846E847D848C849B84AA847E
S1130AB0B984C884DF80EE80FD800C811B81AA810B
S1130AC0B981CE0FD11D0FB6F894DEBF0FBECDBFD6
S10B0AD0ED010895F894FFCF35
S1130AD83532323A32003532323A3100303130313F
S10D0AE80A0025640025640A0000DA
S9030000FC
