:100000000C942A000C943F000C943F000C943F0089
:100010000C943F000C943F000C943F000C943F0064
:100020000C943F000C943F000C943F000C943F0054
:100030000C943F000C943F000C943F000C943F0044
:100040000C943F000C943F000C943F000C943F0034
:100050000C943F0011241FBECFE5D4E0DEBFCDBF1E
:1000600010E0A0E6B0E0E0EBF5E002C005900D92F4
:10007000AA3BB107D9F70E946D000C94D6020C94EC
:10008000000010BC8FE589B98CEB80BD88E18AB98E
:100090000895CF9387E30E94E800C82F823949F47E
:1000A00080E690E00E94AD0281E790E00E94AD0200
:1000B00012C080E78C0F823048F480E690E00E9406
:1000C000AD0282E890E00E94AD0205C082E990E0B6
:1000D0000E94AD02CBBBCF910895CF93DF93CDB7F4
:1000E000DEB760970FB6F894DEBF0FBECDBF2FEF1F
:1000F0008FE191E0215080409040E1F700C0000086
:100100000E9441000E9497028FEF97E40197F1F758
:1001100000C000000E9401018FEF97E40197F1F702
:1001200000C000000E9449009FEF2FE786E1915038
:1001300020408040E1F700C00000BE016F5F7F4FAC
:1001400082E50E942602813019F5CE0101960E94B7
:100150005B02813081F40BC0E1E0F0E0EC0FFD1FA9
:10016000E10FF11D80810E94BA021F5F01C010E003
:10017000153090F304C083EA90E00E94AD029FEF37
:100180002FE786E1915020408040E1F700C0000059
:100190009FEF2FE786E1915020408040E1F700C0BB
:1001A0000000CBCFCF93C62F98B39F7E98BB96EF1E
:1001B0009A95F1F790E0880F991F8E770E94A4021C
:1001C0008C2F0E94A40288B3806188BBCF910895D0
:1001D00098B39F7E98BB96EF9A95F1F790E0880FC1
:1001E000991F8E7780680E94A40280E00E94A4027A
:1001F00098B3906198BB08956FE081E00E94D200AF
:1002000008950E94FC006DE88AE20E94D2006EE32D
:100210008BE20E94D2006EE18CE20E94D20060E08C
:100220008DE20E94D20060E485E10E94D2006DE37D
:1002300081E10E94D20084E10E94E800982F93702F
:1002400029F4682F636084E10E94D20008954F92E0
:100250005F926F927F928F929F92AF92BF92CF9256
:10026000DF92EF92FF920F931F93CF93DF93D82FDC
:100270007B01C42F59018C3029F08E3061F0912C14
:10028000812C10C00F2EF0E39F2EF02D0F2EF7E7DC
:100290008F2EF02D07C06894992494F80F2EF2E168
:1002A0008F2EF02D84E00E94E800682F6F7784E0A5
:1002B0000E94D2008AE00E94E800682F60688AE00D
:1002C0000E94D20060E081E00E94D200412C512CBB
:1002D00032010CC0F701E40DF51D608189E00E9438
:1002E000D2008FEF481A580A680A780A8C2F90E0DB
:1002F000A0E0B0E0481659066A067B0658F36D2F59
:1003000081E00E94D200DC3041F48DE00E94E800E0
:10031000682F60688DE00E94D2000F2EF0EDCF2E86
:10032000F7E0DF2EE12CF12CF02D84E00E94E800B4
:10033000C82FE1E0CE1AD108E108F10829F080FDCC
:1003400003C0892D8C2389F38DE00E94E800682F7B
:100350006F778DE00E94D200CD28CE28CF2809F4F7
:1003600060C086E00E94E8008B7109F05CC0C82183
:10037000C0FD02C0C1E001C0C2E0DC3009F054C0E1
:100380008AE00E94E800D82F8CE00E94E800282F25
:100390002770A9F08D2F90E00197880F991F880F83
:1003A000991F880F991F820F911D092E000CAA0B0F
:1003B000BB0BF80180839183A283B38311C08D2F7F
:1003C00090E0880F991F880F991F880F991F092E99
:1003D000000CAA0BBB0BF80180839183A283B3832B
:1003E000D11101C0D1E0D13108F0D0E1C12CD12C24
:1003F00076010DC085010C0D1D1D89E00E94E800ED
:10040000F8018083FFEFCF1ADF0AEF0AFF0A8D2F72
:1004100090E0A0E0B0E0C816D906EA06FB0650F36B
:1004200003C0C3E001C0C3E08C2FDF91CF911F91C7
:100430000F91FF90EF90DF90CF90BF90AF909F9083
:100440008F907F906F905F904F900895EF92FF9202
:100450000F931F93CF93DF9300D000D0CDB7DEB7BB
:10046000182F7B0167E08DE00E94D200F701108316
:100470008E010F5F1F4F970141E0B7018CE00E9492
:100480002701813051F449815A816B817C8140314F
:1004900051056105710519F403C083E001C083E0D3
:1004A0000F900F900F900F90DF91CF911F910F91B0
:1004B000FF90EF900895EF92FF920F931F93CF93C9
:1004C000DF9300D000D0CDB7DEB77C0160E08DE0D7
:1004D0000E94D20083E9F701808380E281838E014C
:1004E0000F5F1F4F970142E0B7018CE00E94270188
:1004F000813091F407C0F701E90FF11D3081232706
:100500009F5F02C020E090E09430A8F3F701E90F6C
:10051000F11D9081291383E00F900F900F900F90A1
:10052000DF91CF911F910F91FF90EF90089587B3C6
:10053000806B87BB87B38F7B87BB8EB18E7F8EB975
:100540008DB181658DB908958FB9779BFECF8FB13D
:1005500008955D9BFECF8CB90895CF93DF93EC0196
:1005600003C00E94A902219688818111FACFDF91F0
:10057000CF910895CF93C82F82958F70282F30E0A8
:100580002A30310514F4805D01C0895C0E94A90203
:10059000CF708C2F90E00A971CF480E38C0F02C080
:1005A00087E38C0F0E94A902CF910895F894FFCFA2
:1005B0005265616465722064657465637465642066
:1005C000004D494641524520524335323220763261
:1005D0000A004D4946415245205243353232763168
:1005E0000A004E6F2072656164657220666F756ED9
:1005F000640A004572726F722072656164696E6789
:0A0600002073657269616C210A0025
:00000001FF
